{
  "_format": "hh-sol-artifact-1",
  "contractName": "Vote",
  "sourceName": "contracts/Vote.sol",
  "abi": [
    {
      "inputs": [],
      "stateMutability": "nonpayable",
      "type": "constructor"
    },
    {
      "anonymous": false,
      "inputs": [
        {
          "indexed": true,
          "internalType": "address",
          "name": "voter",
          "type": "address"
        },
        {
          "indexed": false,
          "internalType": "uint256",
          "name": "candidateId",
          "type": "uint256"
        }
      ],
      "name": "VoteCasted",
      "type": "event"
    },
    {
      "inputs": [
        {
          "internalType": "string",
          "name": "_name",
          "type": "string"
        },
        {
          "internalType": "string",
          "name": "_slogan",
          "type": "string"
        }
      ],
      "name": "addCandidate",
      "outputs": [],
      "stateMutability": "nonpayable",
      "type": "function"
    },
    {
      "inputs": [],
      "name": "admin",
      "outputs": [
        {
          "internalType": "address",
          "name": "",
          "type": "address"
        }
      ],
      "stateMutability": "view",
      "type": "function"
    },
    {
      "inputs": [],
      "name": "candidateCount",
      "outputs": [
        {
          "internalType": "uint256",
          "name": "",
          "type": "uint256"
        }
      ],
      "stateMutability": "view",
      "type": "function"
    },
    {
      "inputs": [
        {
          "internalType": "uint256",
          "name": "",
          "type": "uint256"
        }
      ],
      "name": "candidates",
      "outputs": [
        {
          "internalType": "uint256",
          "name": "id",
          "type": "uint256"
        },
        {
          "internalType": "string",
          "name": "name",
          "type": "string"
        },
        {
          "internalType": "string",
          "name": "slogan",
          "type": "string"
        },
        {
          "internalType": "uint256",
          "name": "voteCount",
          "type": "uint256"
        }
      ],
      "stateMutability": "view",
      "type": "function"
    },
    {
      "inputs": [],
      "name": "endTime",
      "outputs": [
        {
          "internalType": "uint256",
          "name": "",
          "type": "uint256"
        }
      ],
      "stateMutability": "view",
      "type": "function"
    },
    {
      "inputs": [
        {
          "internalType": "uint256",
          "name": "_id",
          "type": "uint256"
        }
      ],
      "name": "getCandidate",
      "outputs": [
        {
          "internalType": "string",
          "name": "",
          "type": "string"
        },
        {
          "internalType": "string",
          "name": "",
          "type": "string"
        },
        {
          "internalType": "uint256",
          "name": "",
          "type": "uint256"
        }
      ],
      "stateMutability": "view",
      "type": "function"
    },
    {
      "inputs": [],
      "name": "getTotalCandidates",
      "outputs": [
        {
          "internalType": "uint256",
          "name": "",
          "type": "uint256"
        }
      ],
      "stateMutability": "view",
      "type": "function"
    },
    {
      "inputs": [],
      "name": "getTotalVotes",
      "outputs": [
        {
          "internalType": "uint256",
          "name": "",
          "type": "uint256"
        }
      ],
      "stateMutability": "view",
      "type": "function"
    },
    {
      "inputs": [
        {
          "internalType": "address",
          "name": "_voter",
          "type": "address"
        }
      ],
      "name": "getVoterCNIC",
      "outputs": [
        {
          "internalType": "string",
          "name": "",
          "type": "string"
        }
      ],
      "stateMutability": "view",
      "type": "function"
    },
    {
      "inputs": [],
      "name": "getVotingTime",
      "outputs": [
        {
          "internalType": "uint256",
          "name": "",
          "type": "uint256"
        },
        {
          "internalType": "uint256",
          "name": "",
          "type": "uint256"
        }
      ],
      "stateMutability": "view",
      "type": "function"
    },
    {
      "inputs": [
        {
          "internalType": "address",
          "name": "_user",
          "type": "address"
        }
      ],
      "name": "hasVoted",
      "outputs": [
        {
          "internalType": "bool",
          "name": "",
          "type": "bool"
        }
      ],
      "stateMutability": "view",
      "type": "function"
    },
    {
      "inputs": [
        {
          "internalType": "uint256",
          "name": "_startTime",
          "type": "uint256"
        },
        {
          "internalType": "uint256",
          "name": "_endTime",
          "type": "uint256"
        }
      ],
      "name": "setVotingTime",
      "outputs": [],
      "stateMutability": "nonpayable",
      "type": "function"
    },
    {
      "inputs": [],
      "name": "startTime",
      "outputs": [
        {
          "internalType": "uint256",
          "name": "",
          "type": "uint256"
        }
      ],
      "stateMutability": "view",
      "type": "function"
    },
    {
      "inputs": [],
      "name": "totalVotes",
      "outputs": [
        {
          "internalType": "uint256",
          "name": "",
          "type": "uint256"
        }
      ],
      "stateMutability": "view",
      "type": "function"
    },
    {
      "inputs": [
        {
          "internalType": "uint256",
          "name": "_candidateId",
          "type": "uint256"
        },
        {
          "internalType": "string",
          "name": "_cnic",
          "type": "string"
        }
      ],
      "name": "vote",
      "outputs": [],
      "stateMutability": "nonpayable",
      "type": "function"
    },
    {
      "inputs": [
        {
          "internalType": "address",
          "name": "",
          "type": "address"
        }
      ],
      "name": "voters",
      "outputs": [
        {
          "internalType": "bool",
          "name": "hasVoted",
          "type": "bool"
        },
        {
          "internalType": "string",
          "name": "cnic",
          "type": "string"
        }
      ],
      "stateMutability": "view",
      "type": "function"
    }
  ],
  "bytecode": "0x608060405234801561001057600080fd5b50336000806101000a81548173ffffffffffffffffffffffffffffffffffffffff021916908373ffffffffffffffffffffffffffffffffffffffff160217905550611a4b806100606000396000f3fe608060405234801561001057600080fd5b50600436106101005760003560e01c80633477ee2e11610097578063a3ec138d11610066578063a3ec138d146102b7578063a78cb831146102e8578063a9a981a314610304578063f851a4401461032257610100565b80633477ee2e1461021657806335b8e8201461024957806378e979251461027b5780639a0e7d661461029957610100565b80632281949c116100d35780632281949c1461019057806324108475146101c057806326541b56146101dc5780633197cbb6146101f857610100565b806309eef43e146101055780630d15fd77146101355780630deb56ab1461015357806315c2f63614610171575b600080fd5b61011f600480360381019061011a9190610e47565b610340565b60405161012c9190610e8f565b60405180910390f35b61013d610399565b60405161014a9190610ec3565b60405180910390f35b61015b61039f565b6040516101689190610ec3565b60405180910390f35b6101796103a9565b604051610187929190610ede565b60405180910390f35b6101aa60048036038101906101a59190610e47565b6103ba565b6040516101b79190610f97565b60405180910390f35b6101da60048036038101906101d5919061111a565b61051c565b005b6101f660048036038101906101f19190611176565b610819565b005b61020061093f565b60405161020d9190610ec3565b60405180910390f35b610230600480360381019061022b91906111ee565b610945565b604051610240949392919061121b565b60405180910390f35b610263600480360381019061025e91906111ee565b610a85565b6040516102729392919061126e565b60405180910390f35b610283610c00565b6040516102909190610ec3565b60405180910390f35b6102a1610c06565b6040516102ae9190610ec3565b60405180910390f35b6102d160048036038101906102cc9190610e47565b610c10565b6040516102df9291906112b3565b60405180910390f35b61030260048036038101906102fd91906112e3565b610cc9565b005b61030c610dab565b6040516103199190610ec3565b60405180910390f35b61032a610db1565b6040516103379190611332565b60405180910390f35b6000600660008373ffffffffffffffffffffffffffffffffffffffff1673ffffffffffffffffffffffffffffffffffffffff16815260200190815260200160002060000160009054906101000a900460ff169050919050565b60025481565b6000600154905090565b600080600354600454915091509091565b606060008054906101000a900473ffffffffffffffffffffffffffffffffffffffff1673ffffffffffffffffffffffffffffffffffffffff163373ffffffffffffffffffffffffffffffffffffffff161461044a576040517f08c379a0000000000000000000000000000000000000000000000000000000008152600401610441906113bf565b60405180910390fd5b600660008373ffffffffffffffffffffffffffffffffffffffff1673ffffffffffffffffffffffffffffffffffffffff16815260200190815260200160002060010180546104979061140e565b80601f01602080910402602001604051908101604052809291908181526020018280546104c39061140e565b80156105105780601f106104e557610100808354040283529160200191610510565b820191906000526020600020905b8154815290600101906020018083116104f357829003601f168201915b50505050509050919050565b600354421015801561053057506004544211155b61056f576040517f08c379a00000000000000000000000000000000000000000000000000000000081526004016105669061148b565b60405180910390fd5b600660003373ffffffffffffffffffffffffffffffffffffffff1673ffffffffffffffffffffffffffffffffffffffff16815260200190815260200160002060000160009054906101000a900460ff16156105ff576040517f08c379a00000000000000000000000000000000000000000000000000000000081526004016105f69061151d565b60405180910390fd5b60078160405161060f9190611579565b908152602001604051809103902060009054906101000a900460ff161561066b576040517f08c379a000000000000000000000000000000000000000000000000000000000815260040161066290611602565b60405180910390fd5b60008211801561067d57506001548211155b6106bc576040517f08c379a00000000000000000000000000000000000000000000000000000000081526004016106b39061166e565b60405180910390fd5b604051806040016040528060011515815260200182815250600660003373ffffffffffffffffffffffffffffffffffffffff1673ffffffffffffffffffffffffffffffffffffffff16815260200190815260200160002060008201518160000160006101000a81548160ff0219169083151502179055506020820151816001019081610748919061183a565b50905050600160078260405161075e9190611579565b908152602001604051809103902060006101000a81548160ff0219169083151502179055506005600083815260200190815260200160002060030160008154809291906107aa9061193b565b9190505550600260008154809291906107c29061193b565b91905055503373ffffffffffffffffffffffffffffffffffffffff167fd0e6c39f2e086dc49f1524b47725526a56945cd1ff661f37976f1725a1e569868360405161080d9190610ec3565b60405180910390a25050565b60008054906101000a900473ffffffffffffffffffffffffffffffffffffffff1673ffffffffffffffffffffffffffffffffffffffff163373ffffffffffffffffffffffffffffffffffffffff16146108a7576040517f08c379a000000000000000000000000000000000000000000000000000000000815260040161089e906113bf565b60405180910390fd5b600160008154809291906108ba9061193b565b9190505550604051806080016040528060015481526020018381526020018281526020016000815250600560006001548152602001908152602001600020600082015181600001556020820151816001019081610917919061183a565b50604082015181600201908161092d919061183a565b50606082015181600301559050505050565b60045481565b600560205280600052604060002060009150905080600001549080600101805461096e9061140e565b80601f016020809104026020016040519081016040528092919081815260200182805461099a9061140e565b80156109e75780601f106109bc576101008083540402835291602001916109e7565b820191906000526020600020905b8154815290600101906020018083116109ca57829003601f168201915b5050505050908060020180546109fc9061140e565b80601f0160208091040260200160405190810160405280929190818152602001828054610a289061140e565b8015610a755780601f10610a4a57610100808354040283529160200191610a75565b820191906000526020600020905b815481529060010190602001808311610a5857829003601f168201915b5050505050908060030154905084565b6060806000806005600086815260200190815260200160002060405180608001604052908160008201548152602001600182018054610ac39061140e565b80601f0160208091040260200160405190810160405280929190818152602001828054610aef9061140e565b8015610b3c5780601f10610b1157610100808354040283529160200191610b3c565b820191906000526020600020905b815481529060010190602001808311610b1f57829003601f168201915b50505050508152602001600282018054610b559061140e565b80601f0160208091040260200160405190810160405280929190818152602001828054610b819061140e565b8015610bce5780601f10610ba357610100808354040283529160200191610bce565b820191906000526020600020905b815481529060010190602001808311610bb157829003601f168201915b505050505081526020016003820154815250509050806020015181604001518260600151935093509350509193909250565b60035481565b6000600254905090565b60066020528060005260406000206000915090508060000160009054906101000a900460ff1690806001018054610c469061140e565b80601f0160208091040260200160405190810160405280929190818152602001828054610c729061140e565b8015610cbf5780601f10610c9457610100808354040283529160200191610cbf565b820191906000526020600020905b815481529060010190602001808311610ca257829003601f168201915b5050505050905082565b60008054906101000a900473ffffffffffffffffffffffffffffffffffffffff1673ffffffffffffffffffffffffffffffffffffffff163373ffffffffffffffffffffffffffffffffffffffff1614610d57576040517f08c379a0000000000000000000000000000000000000000000000000000000008152600401610d4e906113bf565b60405180910390fd5b808210610d99576040517f08c379a0000000000000000000000000000000000000000000000000000000008152600401610d90906119f5565b60405180910390fd5b81600381905550806004819055505050565b60015481565b60008054906101000a900473ffffffffffffffffffffffffffffffffffffffff1681565b6000604051905090565b600080fd5b600080fd5b600073ffffffffffffffffffffffffffffffffffffffff82169050919050565b6000610e1482610de9565b9050919050565b610e2481610e09565b8114610e2f57600080fd5b50565b600081359050610e4181610e1b565b92915050565b600060208284031215610e5d57610e5c610ddf565b5b6000610e6b84828501610e32565b91505092915050565b60008115159050919050565b610e8981610e74565b82525050565b6000602082019050610ea46000830184610e80565b92915050565b6000819050919050565b610ebd81610eaa565b82525050565b6000602082019050610ed86000830184610eb4565b92915050565b6000604082019050610ef36000830185610eb4565b610f006020830184610eb4565b9392505050565b600081519050919050565b600082825260208201905092915050565b60005b83811015610f41578082015181840152602081019050610f26565b60008484015250505050565b6000601f19601f8301169050919050565b6000610f6982610f07565b610f738185610f12565b9350610f83818560208601610f23565b610f8c81610f4d565b840191505092915050565b60006020820190508181036000830152610fb18184610f5e565b905092915050565b610fc281610eaa565b8114610fcd57600080fd5b50565b600081359050610fdf81610fb9565b92915050565b600080fd5b600080fd5b7f4e487b7100000000000000000000000000000000000000000000000000000000600052604160045260246000fd5b61102782610f4d565b810181811067ffffffffffffffff8211171561104657611045610fef565b5b80604052505050565b6000611059610dd5565b9050611065828261101e565b919050565b600067ffffffffffffffff82111561108557611084610fef565b5b61108e82610f4d565b9050602081019050919050565b82818337600083830152505050565b60006110bd6110b88461106a565b61104f565b9050828152602081018484840111156110d9576110d8610fea565b5b6110e484828561109b565b509392505050565b600082601f83011261110157611100610fe5565b5b81356111118482602086016110aa565b91505092915050565b6000806040838503121561113157611130610ddf565b5b600061113f85828601610fd0565b925050602083013567ffffffffffffffff8111156111605761115f610de4565b5b61116c858286016110ec565b9150509250929050565b6000806040838503121561118d5761118c610ddf565b5b600083013567ffffffffffffffff8111156111ab576111aa610de4565b5b6111b7858286016110ec565b925050602083013567ffffffffffffffff8111156111d8576111d7610de4565b5b6111e4858286016110ec565b9150509250929050565b60006020828403121561120457611203610ddf565b5b600061121284828501610fd0565b91505092915050565b60006080820190506112306000830187610eb4565b81810360208301526112428186610f5e565b905081810360408301526112568185610f5e565b90506112656060830184610eb4565b95945050505050565b600060608201905081810360008301526112888186610f5e565b9050818103602083015261129c8185610f5e565b90506112ab6040830184610eb4565b949350505050565b60006040820190506112c86000830185610e80565b81810360208301526112da8184610f5e565b90509392505050565b600080604083850312156112fa576112f9610ddf565b5b600061130885828601610fd0565b925050602061131985828601610fd0565b9150509250929050565b61132c81610e09565b82525050565b60006020820190506113476000830184611323565b92915050565b7f4f6e6c792061646d696e2063616e20706572666f726d2074686973206163746960008201527f6f6e2e0000000000000000000000000000000000000000000000000000000000602082015250565b60006113a9602383610f12565b91506113b48261134d565b604082019050919050565b600060208201905081810360008301526113d88161139c565b9050919050565b7f4e487b7100000000000000000000000000000000000000000000000000000000600052602260045260246000fd5b6000600282049050600182168061142657607f821691505b602082108103611439576114386113df565b5b50919050565b7f566f74696e67206973206e6f74206163746976652e0000000000000000000000600082015250565b6000611475601583610f12565b91506114808261143f565b602082019050919050565b600060208201905081810360008301526114a481611468565b9050919050565b7f596f75206861766520616c726561647920766f7465642077697468207468697360008201527f2077616c6c65742e000000000000000000000000000000000000000000000000602082015250565b6000611507602883610f12565b9150611512826114ab565b604082019050919050565b60006020820190508181036000830152611536816114fa565b9050919050565b600081905092915050565b600061155382610f07565b61155d818561153d565b935061156d818560208601610f23565b80840191505092915050565b60006115858284611548565b915081905092915050565b7f5468697320434e49432068617320616c7265616479206265656e20757365642060008201527f746f20766f74652e000000000000000000000000000000000000000000000000602082015250565b60006115ec602883610f12565b91506115f782611590565b604082019050919050565b6000602082019050818103600083015261161b816115df565b9050919050565b7f496e76616c69642063616e646964617465204944000000000000000000000000600082015250565b6000611658601483610f12565b915061166382611622565b602082019050919050565b600060208201905081810360008301526116878161164b565b9050919050565b60008190508160005260206000209050919050565b60006020601f8301049050919050565b600082821b905092915050565b6000600883026116f07fffffffffffffffffffffffffffffffffffffffffffffffffffffffffffffffff826116b3565b6116fa86836116b3565b95508019841693508086168417925050509392505050565b6000819050919050565b600061173761173261172d84610eaa565b611712565b610eaa565b9050919050565b6000819050919050565b6117518361171c565b61176561175d8261173e565b8484546116c0565b825550505050565b600090565b61177a61176d565b611785818484611748565b505050565b5b818110156117a95761179e600082611772565b60018101905061178b565b5050565b601f8211156117ee576117bf8161168e565b6117c8846116a3565b810160208510156117d7578190505b6117eb6117e3856116a3565b83018261178a565b50505b505050565b600082821c905092915050565b6000611811600019846008026117f3565b1980831691505092915050565b600061182a8383611800565b9150826002028217905092915050565b61184382610f07565b67ffffffffffffffff81111561185c5761185b610fef565b5b611866825461140e565b6118718282856117ad565b600060209050601f8311600181146118a45760008415611892578287015190505b61189c858261181e565b865550611904565b601f1984166118b28661168e565b60005b828110156118da578489015182556001820191506020850194506020810190506118b5565b868310156118f757848901516118f3601f891682611800565b8355505b6001600288020188555050505b505050505050565b7f4e487b7100000000000000000000000000000000000000000000000000000000600052601160045260246000fd5b600061194682610eaa565b91507fffffffffffffffffffffffffffffffffffffffffffffffffffffffffffffffff82036119785761197761190c565b5b600182019050919050565b7f53746172742074696d65206d757374206265206265666f726520656e6420746960008201527f6d652e0000000000000000000000000000000000000000000000000000000000602082015250565b60006119df602383610f12565b91506119ea82611983565b604082019050919050565b60006020820190508181036000830152611a0e816119d2565b905091905056fea2646970667358221220c510133f86604be161544d24e32f80fcee3e9072049c5c41a76d896b76acc82764736f6c63430008140033",
  "linkReferences": {},
  "deployedLinkReferences": {}
}