{
  "_format": "hh-sol-artifact-1",
  "contractName": "Vote",
  "sourceName": "contracts/Vote.sol",
  "abi": [
    {
      "inputs": [],
      "stateMutability": "nonpayable",
      "type": "constructor"
    },
    {
      "anonymous": false,
      "inputs": [
        {
          "indexed": true,
          "internalType": "address",
          "name": "voter",
          "type": "address"
        },
        {
          "indexed": false,
          "internalType": "uint256",
          "name": "candidateId",
          "type": "uint256"
        }
      ],
      "name": "VoteCasted",
      "type": "event"
    },
    {
      "anonymous": false,
      "inputs": [
        {
          "components": [
            {
              "internalType": "uint256",
              "name": "startTime",
              "type": "uint256"
            },
            {
              "internalType": "uint256",
              "name": "endTime",
              "type": "uint256"
            },
            {
              "internalType": "string",
              "name": "day",
              "type": "string"
            },
            {
              "internalType": "string",
              "name": "date",
              "type": "string"
            },
            {
              "internalType": "uint256",
              "name": "totalVotes",
              "type": "uint256"
            },
            {
              "internalType": "uint256",
              "name": "winnerId",
              "type": "uint256"
            },
            {
              "internalType": "string",
              "name": "winnerName",
              "type": "string"
            },
            {
              "internalType": "uint256",
              "name": "winnerVotes",
              "type": "uint256"
            },
            {
              "internalType": "string",
              "name": "electionName",
              "type": "string"
            }
          ],
          "indexed": false,
          "internalType": "struct Vote.ElectionResult",
          "name": "result",
          "type": "tuple"
        }
      ],
      "name": "VotingEnded",
      "type": "event"
    },
    {
      "inputs": [
        {
          "internalType": "string",
          "name": "_name",
          "type": "string"
        },
        {
          "internalType": "string",
          "name": "_slogan",
          "type": "string"
        },
        {
          "internalType": "string",
          "name": "_gender",
          "type": "string"
        }
      ],
      "name": "addCandidate",
      "outputs": [],
      "stateMutability": "nonpayable",
      "type": "function"
    },
    {
      "inputs": [],
      "name": "admin",
      "outputs": [
        {
          "internalType": "address",
          "name": "",
          "type": "address"
        }
      ],
      "stateMutability": "view",
      "type": "function"
    },
    {
      "inputs": [],
      "name": "candidateCount",
      "outputs": [
        {
          "internalType": "uint256",
          "name": "",
          "type": "uint256"
        }
      ],
      "stateMutability": "view",
      "type": "function"
    },
    {
      "inputs": [
        {
          "internalType": "uint256",
          "name": "",
          "type": "uint256"
        }
      ],
      "name": "candidates",
      "outputs": [
        {
          "internalType": "uint256",
          "name": "id",
          "type": "uint256"
        },
        {
          "internalType": "string",
          "name": "name",
          "type": "string"
        },
        {
          "internalType": "string",
          "name": "slogan",
          "type": "string"
        },
        {
          "internalType": "string",
          "name": "gender",
          "type": "string"
        },
        {
          "internalType": "uint256",
          "name": "voteCount",
          "type": "uint256"
        }
      ],
      "stateMutability": "view",
      "type": "function"
    },
    {
      "inputs": [
        {
          "internalType": "string",
          "name": "_day",
          "type": "string"
        },
        {
          "internalType": "string",
          "name": "_date",
          "type": "string"
        }
      ],
      "name": "checkAndEndVoting",
      "outputs": [],
      "stateMutability": "nonpayable",
      "type": "function"
    },
    {
      "inputs": [],
      "name": "electionName",
      "outputs": [
        {
          "internalType": "string",
          "name": "",
          "type": "string"
        }
      ],
      "stateMutability": "view",
      "type": "function"
    },
    {
      "inputs": [],
      "name": "endTime",
      "outputs": [
        {
          "internalType": "uint256",
          "name": "",
          "type": "uint256"
        }
      ],
      "stateMutability": "view",
      "type": "function"
    },
    {
      "inputs": [
        {
          "internalType": "uint256",
          "name": "_id",
          "type": "uint256"
        }
      ],
      "name": "getCandidate",
      "outputs": [
        {
          "internalType": "string",
          "name": "",
          "type": "string"
        },
        {
          "internalType": "string",
          "name": "",
          "type": "string"
        },
        {
          "internalType": "string",
          "name": "",
          "type": "string"
        },
        {
          "internalType": "uint256",
          "name": "",
          "type": "uint256"
        }
      ],
      "stateMutability": "view",
      "type": "function"
    },
    {
      "inputs": [],
      "name": "getElectionHistoryCount",
      "outputs": [
        {
          "internalType": "uint256",
          "name": "",
          "type": "uint256"
        }
      ],
      "stateMutability": "view",
      "type": "function"
    },
    {
      "inputs": [
        {
          "internalType": "uint256",
          "name": "index",
          "type": "uint256"
        }
      ],
      "name": "getElectionResult",
      "outputs": [
        {
          "internalType": "uint256",
          "name": "",
          "type": "uint256"
        },
        {
          "internalType": "uint256",
          "name": "",
          "type": "uint256"
        },
        {
          "internalType": "string",
          "name": "",
          "type": "string"
        },
        {
          "internalType": "string",
          "name": "",
          "type": "string"
        },
        {
          "internalType": "uint256",
          "name": "",
          "type": "uint256"
        },
        {
          "internalType": "uint256",
          "name": "",
          "type": "uint256"
        },
        {
          "internalType": "string",
          "name": "",
          "type": "string"
        },
        {
          "internalType": "uint256",
          "name": "",
          "type": "uint256"
        },
        {
          "internalType": "string",
          "name": "",
          "type": "string"
        }
      ],
      "stateMutability": "view",
      "type": "function"
    },
    {
      "inputs": [],
      "name": "getTotalCandidates",
      "outputs": [
        {
          "internalType": "uint256",
          "name": "",
          "type": "uint256"
        }
      ],
      "stateMutability": "view",
      "type": "function"
    },
    {
      "inputs": [
        {
          "internalType": "uint256",
          "name": "",
          "type": "uint256"
        }
      ],
      "name": "history",
      "outputs": [
        {
          "internalType": "uint256",
          "name": "startTime",
          "type": "uint256"
        },
        {
          "internalType": "uint256",
          "name": "endTime",
          "type": "uint256"
        },
        {
          "internalType": "string",
          "name": "day",
          "type": "string"
        },
        {
          "internalType": "string",
          "name": "date",
          "type": "string"
        },
        {
          "internalType": "uint256",
          "name": "totalVotes",
          "type": "uint256"
        },
        {
          "internalType": "uint256",
          "name": "winnerId",
          "type": "uint256"
        },
        {
          "internalType": "string",
          "name": "winnerName",
          "type": "string"
        },
        {
          "internalType": "uint256",
          "name": "winnerVotes",
          "type": "uint256"
        },
        {
          "internalType": "string",
          "name": "electionName",
          "type": "string"
        }
      ],
      "stateMutability": "view",
      "type": "function"
    },
    {
      "inputs": [
        {
          "internalType": "uint256",
          "name": "_startTime",
          "type": "uint256"
        },
        {
          "internalType": "uint256",
          "name": "_endTime",
          "type": "uint256"
        },
        {
          "internalType": "string",
          "name": "_electionName",
          "type": "string"
        }
      ],
      "name": "setVotingTime",
      "outputs": [],
      "stateMutability": "nonpayable",
      "type": "function"
    },
    {
      "inputs": [],
      "name": "startTime",
      "outputs": [
        {
          "internalType": "uint256",
          "name": "",
          "type": "uint256"
        }
      ],
      "stateMutability": "view",
      "type": "function"
    },
    {
      "inputs": [],
      "name": "totalVotes",
      "outputs": [
        {
          "internalType": "uint256",
          "name": "",
          "type": "uint256"
        }
      ],
      "stateMutability": "view",
      "type": "function"
    },
    {
      "inputs": [
        {
          "internalType": "uint256",
          "name": "",
          "type": "uint256"
        }
      ],
      "name": "usedCnicList",
      "outputs": [
        {
          "internalType": "string",
          "name": "",
          "type": "string"
        }
      ],
      "stateMutability": "view",
      "type": "function"
    },
    {
      "inputs": [
        {
          "internalType": "uint256",
          "name": "_candidateId",
          "type": "uint256"
        },
        {
          "internalType": "string",
          "name": "_cnic",
          "type": "string"
        }
      ],
      "name": "vote",
      "outputs": [],
      "stateMutability": "nonpayable",
      "type": "function"
    },
    {
      "inputs": [
        {
          "internalType": "uint256",
          "name": "",
          "type": "uint256"
        }
      ],
      "name": "voterAddresses",
      "outputs": [
        {
          "internalType": "address",
          "name": "",
          "type": "address"
        }
      ],
      "stateMutability": "view",
      "type": "function"
    },
    {
      "inputs": [
        {
          "internalType": "address",
          "name": "",
          "type": "address"
        }
      ],
      "name": "voters",
      "outputs": [
        {
          "internalType": "bool",
          "name": "hasVoted",
          "type": "bool"
        },
        {
          "internalType": "string",
          "name": "cnic",
          "type": "string"
        }
      ],
      "stateMutability": "view",
      "type": "function"
    },
    {
      "inputs": [],
      "name": "votingEnded",
      "outputs": [
        {
          "internalType": "bool",
          "name": "",
          "type": "bool"
        }
      ],
      "stateMutability": "view",
      "type": "function"
    }
  ],
  "bytecode": "0x608060405234801561001057600080fd5b50336000806101000a81548173ffffffffffffffffffffffffffffffffffffffff021916908373ffffffffffffffffffffffffffffffffffffffff160217905550612e80806100606000396000f3fe608060405234801561001057600080fd5b506004361061012c5760003560e01c80635bfb94aa116100ad578063a7a38f0b11610071578063a7a38f0b14610357578063a9a981a31461038f578063ad71f8dc146103ad578063dd0e2373146103c9578063f851a440146103f95761012c565b80635bfb94aa146102b057806378e97925146102cc57806385e8e7a7146102ea5780639d5a052914610308578063a3ec138d146103265761012c565b806324108475116100f457806324108475146101f15780633197cbb61461020d5780633477ee2e1461022b5780633588ebd51461025f57806335b8e8201461027d5761012c565b80630d012ee7146101315780630d15fd77146101615780630deb56ab1461017f578063105452191461019d57806323fc4b36146101b9575b600080fd5b61014b60048036038101906101469190611e96565b610417565b6040516101589190611f53565b60405180910390f35b6101696104c3565b6040516101769190611f84565b60405180910390f35b6101876104c9565b6040516101949190611f84565b60405180910390f35b6101b760048036038101906101b291906120d4565b6104d3565b005b6101d360048036038101906101ce9190611e96565b6109e7565b6040516101e89998979695949392919061214c565b60405180910390f35b61020b600480360381019061020691906121f5565b610d37565b005b6102156110cc565b6040516102229190611f84565b60405180910390f35b61024560048036038101906102409190611e96565b6110d2565b604051610256959493929190612251565b60405180910390f35b6102676112a0565b6040516102749190611f84565b60405180910390f35b61029760048036038101906102929190611e96565b6112ad565b6040516102a794939291906122b9565b60405180910390f35b6102ca60048036038101906102c59190612313565b611514565b005b6102d46117ff565b6040516102e19190611f84565b60405180910390f35b6102f2611805565b6040516102ff9190611f53565b60405180910390f35b610310611893565b60405161031d919061239d565b60405180910390f35b610340600480360381019061033b9190612416565b6118a6565b60405161034e929190612443565b60405180910390f35b610371600480360381019061036c9190611e96565b61195f565b6040516103869998979695949392919061214c565b60405180910390f35b610397611bdd565b6040516103a49190611f84565b60405180910390f35b6103c760048036038101906103c29190612473565b611be3565b005b6103e360048036038101906103de9190611e96565b611d26565b6040516103f09190612529565b60405180910390f35b610401611d65565b60405161040e9190612529565b60405180910390f35b600b818154811061042757600080fd5b90600052602060002001600091509050805461044290612573565b80601f016020809104026020016040519081016040528092919081815260200182805461046e90612573565b80156104bb5780601f10610490576101008083540402835291602001916104bb565b820191906000526020600020905b81548152906001019060200180831161049e57829003601f168201915b505050505081565b60025481565b6000600154905090565b600454421180156104f15750600560009054906101000a900460ff16155b156109e3576000806000600190505b600154811161055757826007600083815260200190815260200160002060040154111561054457600760008281526020019081526020016000206004015492508091505b808061054f906125d3565b915050610500565b5060006040518061012001604052806003548152602001600454815260200186815260200185815260200160025481526020018381526020016007600085815260200190815260200160002060010180546105b190612573565b80601f01602080910402602001604051908101604052809291908181526020018280546105dd90612573565b801561062a5780601f106105ff5761010080835404028352916020019161062a565b820191906000526020600020905b81548152906001019060200180831161060d57829003601f168201915b50505050508152602001600760008581526020019081526020016000206004015481526020016006805461065d90612573565b80601f016020809104026020016040519081016040528092919081815260200182805461068990612573565b80156106d65780601f106106ab576101008083540402835291602001916106d6565b820191906000526020600020905b8154815290600101906020018083116106b957829003601f168201915b50505050508152509050600c8190806001815401808255809150506001900390600052602060002090600902016000909190919091506000820151816000015560208201518160010155604082015181600201908161073591906127c7565b50606082015181600301908161074b91906127c7565b506080820151816004015560a0820151816005015560c082015181600601908161077591906127c7565b5060e0820151816007015561010082015181600801908161079691906127c7565b5050506001600560006101000a81548160ff02191690831515021790555060405180602001604052806000815250600690816107d291906127c7565b507fcb0e05471ac5a82961cacf7418c03a57aaa3cbb488e82558cc5934b94d0f31f78160405161080291906129cc565b60405180910390a16000600190505b600154811161088357600760008281526020019081526020016000206000808201600090556001820160006108469190611d89565b6002820160006108569190611d89565b6003820160006108669190611d89565b60048201600090555050808061087b906125d3565b915050610811565b50600060018190555060005b600a805490508110156109535760086000600a83815481106108b4576108b36129ee565b5b9060005260206000200160009054906101000a900473ffffffffffffffffffffffffffffffffffffffff1673ffffffffffffffffffffffffffffffffffffffff1673ffffffffffffffffffffffffffffffffffffffff168152602001908152602001600020600080820160006101000a81549060ff021916905560018201600061093e9190611d89565b5050808061094b906125d3565b91505061088f565b50600a60006109629190611dc9565b60005b600b805490508110156109d0576009600b8281548110610988576109876129ee565b5b9060005260206000200160405161099f9190612aab565b908152602001604051809103902060006101000a81549060ff021916905580806109c8906125d3565b915050610965565b50600b60006109df9190611dea565b5050505b5050565b600080606080600080606060006060600c805490508a10610a3d576040517f08c379a0000000000000000000000000000000000000000000000000000000008152600401610a3490612b0e565b60405180910390fd5b6000600c8b81548110610a5357610a526129ee565b5b9060005260206000209060090201604051806101200160405290816000820154815260200160018201548152602001600282018054610a9190612573565b80601f0160208091040260200160405190810160405280929190818152602001828054610abd90612573565b8015610b0a5780601f10610adf57610100808354040283529160200191610b0a565b820191906000526020600020905b815481529060010190602001808311610aed57829003601f168201915b50505050508152602001600382018054610b2390612573565b80601f0160208091040260200160405190810160405280929190818152602001828054610b4f90612573565b8015610b9c5780601f10610b7157610100808354040283529160200191610b9c565b820191906000526020600020905b815481529060010190602001808311610b7f57829003601f168201915b505050505081526020016004820154815260200160058201548152602001600682018054610bc990612573565b80601f0160208091040260200160405190810160405280929190818152602001828054610bf590612573565b8015610c425780601f10610c1757610100808354040283529160200191610c42565b820191906000526020600020905b815481529060010190602001808311610c2557829003601f168201915b5050505050815260200160078201548152602001600882018054610c6590612573565b80601f0160208091040260200160405190810160405280929190818152602001828054610c9190612573565b8015610cde5780601f10610cb357610100808354040283529160200191610cde565b820191906000526020600020905b815481529060010190602001808311610cc157829003601f168201915b5050505050815250509050806000015181602001518260400151836060015184608001518560a001518660c001518760e00151886101000151995099509950995099509950995099509950509193959799909294969850565b6003544210158015610d4b57506004544211155b610d8a576040517f08c379a0000000000000000000000000000000000000000000000000000000008152600401610d8190612b7a565b60405180910390fd5b600860003373ffffffffffffffffffffffffffffffffffffffff1673ffffffffffffffffffffffffffffffffffffffff16815260200190815260200160002060000160009054906101000a900460ff1615610e1a576040517f08c379a0000000000000000000000000000000000000000000000000000000008152600401610e1190612be6565b60405180910390fd5b600981604051610e2a9190612c37565b908152602001604051809103902060009054906101000a900460ff1615610e86576040517f08c379a0000000000000000000000000000000000000000000000000000000008152600401610e7d90612c9a565b60405180910390fd5b600082118015610e9857506001548211155b610ed7576040517f08c379a0000000000000000000000000000000000000000000000000000000008152600401610ece90612d06565b60405180910390fd5b604051806040016040528060011515815260200182815250600860003373ffffffffffffffffffffffffffffffffffffffff1673ffffffffffffffffffffffffffffffffffffffff16815260200190815260200160002060008201518160000160006101000a81548160ff0219169083151502179055506020820151816001019081610f6391906127c7565b509050506001600982604051610f799190612c37565b908152602001604051809103902060006101000a81548160ff021916908315150217905550600b81908060018154018082558091505060019003906000526020600020016000909190919091509081610fd291906127c7565b50600a339080600181540180825580915050600190039060005260206000200160009091909190916101000a81548173ffffffffffffffffffffffffffffffffffffffff021916908373ffffffffffffffffffffffffffffffffffffffff16021790555060076000838152602001908152602001600020600401600081548092919061105d906125d3565b919050555060026000815480929190611075906125d3565b91905055503373ffffffffffffffffffffffffffffffffffffffff167fd0e6c39f2e086dc49f1524b47725526a56945cd1ff661f37976f1725a1e56986836040516110c09190611f84565b60405180910390a25050565b60045481565b60076020528060005260406000206000915090508060000154908060010180546110fb90612573565b80601f016020809104026020016040519081016040528092919081815260200182805461112790612573565b80156111745780601f1061114957610100808354040283529160200191611174565b820191906000526020600020905b81548152906001019060200180831161115757829003601f168201915b50505050509080600201805461118990612573565b80601f01602080910402602001604051908101604052809291908181526020018280546111b590612573565b80156112025780601f106111d757610100808354040283529160200191611202565b820191906000526020600020905b8154815290600101906020018083116111e557829003601f168201915b50505050509080600301805461121790612573565b80601f016020809104026020016040519081016040528092919081815260200182805461124390612573565b80156112905780601f1061126557610100808354040283529160200191611290565b820191906000526020600020905b81548152906001019060200180831161127357829003601f168201915b5050505050908060040154905085565b6000600c80549050905090565b6060806060600080851180156112c557506001548511155b611304576040517f08c379a00000000000000000000000000000000000000000000000000000000081526004016112fb90612d06565b60405180910390fd5b6000600760008781526020019081526020016000206040518060a00160405290816000820154815260200160018201805461133e90612573565b80601f016020809104026020016040519081016040528092919081815260200182805461136a90612573565b80156113b75780601f1061138c576101008083540402835291602001916113b7565b820191906000526020600020905b81548152906001019060200180831161139a57829003601f168201915b505050505081526020016002820180546113d090612573565b80601f01602080910402602001604051908101604052809291908181526020018280546113fc90612573565b80156114495780601f1061141e57610100808354040283529160200191611449565b820191906000526020600020905b81548152906001019060200180831161142c57829003601f168201915b5050505050815260200160038201805461146290612573565b80601f016020809104026020016040519081016040528092919081815260200182805461148e90612573565b80156114db5780601f106114b0576101008083540402835291602001916114db565b820191906000526020600020905b8154815290600101906020018083116114be57829003601f168201915b50505050508152602001600482015481525050905080602001518160400151826060015183608001519450945094509450509193509193565b60008054906101000a900473ffffffffffffffffffffffffffffffffffffffff1673ffffffffffffffffffffffffffffffffffffffff163373ffffffffffffffffffffffffffffffffffffffff16146115a2576040517f08c379a000000000000000000000000000000000000000000000000000000000815260040161159990612d98565b60405180910390fd5b8183106115e4576040517f08c379a00000000000000000000000000000000000000000000000000000000081526004016115db90612e2a565b60405180910390fd5b82600381905550816004819055506000600560006101000a81548160ff0219169083151502179055506000600281905550806006908161162491906127c7565b506000600190505b600154811161169e57600760008281526020019081526020016000206000808201600090556001820160006116619190611d89565b6002820160006116719190611d89565b6003820160006116819190611d89565b600482016000905550508080611696906125d3565b91505061162c565b50600060018190555060005b600a8054905081101561176e5760086000600a83815481106116cf576116ce6129ee565b5b9060005260206000200160009054906101000a900473ffffffffffffffffffffffffffffffffffffffff1673ffffffffffffffffffffffffffffffffffffffff1673ffffffffffffffffffffffffffffffffffffffff168152602001908152602001600020600080820160006101000a81549060ff02191690556001820160006117599190611d89565b50508080611766906125d3565b9150506116aa565b50600a600061177d9190611dc9565b60005b600b805490508110156117eb576009600b82815481106117a3576117a26129ee565b5b906000526020600020016040516117ba9190612aab565b908152602001604051809103902060006101000a81549060ff021916905580806117e3906125d3565b915050611780565b50600b60006117fa9190611dea565b505050565b60035481565b6006805461181290612573565b80601f016020809104026020016040519081016040528092919081815260200182805461183e90612573565b801561188b5780601f106118605761010080835404028352916020019161188b565b820191906000526020600020905b81548152906001019060200180831161186e57829003601f168201915b505050505081565b600560009054906101000a900460ff1681565b60086020528060005260406000206000915090508060000160009054906101000a900460ff16908060010180546118dc90612573565b80601f016020809104026020016040519081016040528092919081815260200182805461190890612573565b80156119555780601f1061192a57610100808354040283529160200191611955565b820191906000526020600020905b81548152906001019060200180831161193857829003601f168201915b5050505050905082565b600c818154811061196f57600080fd5b906000526020600020906009020160009150905080600001549080600101549080600201805461199e90612573565b80601f01602080910402602001604051908101604052809291908181526020018280546119ca90612573565b8015611a175780601f106119ec57610100808354040283529160200191611a17565b820191906000526020600020905b8154815290600101906020018083116119fa57829003601f168201915b505050505090806003018054611a2c90612573565b80601f0160208091040260200160405190810160405280929190818152602001828054611a5890612573565b8015611aa55780601f10611a7a57610100808354040283529160200191611aa5565b820191906000526020600020905b815481529060010190602001808311611a8857829003601f168201915b505050505090806004015490806005015490806006018054611ac690612573565b80601f0160208091040260200160405190810160405280929190818152602001828054611af290612573565b8015611b3f5780601f10611b1457610100808354040283529160200191611b3f565b820191906000526020600020905b815481529060010190602001808311611b2257829003601f168201915b505050505090806007015490806008018054611b5a90612573565b80601f0160208091040260200160405190810160405280929190818152602001828054611b8690612573565b8015611bd35780601f10611ba857610100808354040283529160200191611bd3565b820191906000526020600020905b815481529060010190602001808311611bb657829003601f168201915b5050505050905089565b60015481565b60008054906101000a900473ffffffffffffffffffffffffffffffffffffffff1673ffffffffffffffffffffffffffffffffffffffff163373ffffffffffffffffffffffffffffffffffffffff1614611c71576040517f08c379a0000000000000000000000000000000000000000000000000000000008152600401611c6890612d98565b60405180910390fd5b60016000815480929190611c84906125d3565b91905055506040518060a0016040528060015481526020018481526020018381526020018281526020016000815250600760006001548152602001908152602001600020600082015181600001556020820151816001019081611ce791906127c7565b506040820151816002019081611cfd91906127c7565b506060820151816003019081611d1391906127c7565b5060808201518160040155905050505050565b600a8181548110611d3657600080fd5b906000526020600020016000915054906101000a900473ffffffffffffffffffffffffffffffffffffffff1681565b60008054906101000a900473ffffffffffffffffffffffffffffffffffffffff1681565b508054611d9590612573565b6000825580601f10611da75750611dc6565b601f016020900490600052602060002090810190611dc59190611e0b565b5b50565b5080546000825590600052602060002090810190611de79190611e0b565b50565b5080546000825590600052602060002090810190611e089190611e28565b50565b5b80821115611e24576000816000905550600101611e0c565b5090565b5b80821115611e485760008181611e3f9190611d89565b50600101611e29565b5090565b6000604051905090565b600080fd5b600080fd5b6000819050919050565b611e7381611e60565b8114611e7e57600080fd5b50565b600081359050611e9081611e6a565b92915050565b600060208284031215611eac57611eab611e56565b5b6000611eba84828501611e81565b91505092915050565b600081519050919050565b600082825260208201905092915050565b60005b83811015611efd578082015181840152602081019050611ee2565b60008484015250505050565b6000601f19601f8301169050919050565b6000611f2582611ec3565b611f2f8185611ece565b9350611f3f818560208601611edf565b611f4881611f09565b840191505092915050565b60006020820190508181036000830152611f6d8184611f1a565b905092915050565b611f7e81611e60565b82525050565b6000602082019050611f996000830184611f75565b92915050565b600080fd5b600080fd5b7f4e487b7100000000000000000000000000000000000000000000000000000000600052604160045260246000fd5b611fe182611f09565b810181811067ffffffffffffffff8211171561200057611fff611fa9565b5b80604052505050565b6000612013611e4c565b905061201f8282611fd8565b919050565b600067ffffffffffffffff82111561203f5761203e611fa9565b5b61204882611f09565b9050602081019050919050565b82818337600083830152505050565b600061207761207284612024565b612009565b90508281526020810184848401111561209357612092611fa4565b5b61209e848285612055565b509392505050565b600082601f8301126120bb576120ba611f9f565b5b81356120cb848260208601612064565b91505092915050565b600080604083850312156120eb576120ea611e56565b5b600083013567ffffffffffffffff81111561210957612108611e5b565b5b612115858286016120a6565b925050602083013567ffffffffffffffff81111561213657612135611e5b565b5b612142858286016120a6565b9150509250929050565b600061012082019050612162600083018c611f75565b61216f602083018b611f75565b8181036040830152612181818a611f1a565b905081810360608301526121958189611f1a565b90506121a46080830188611f75565b6121b160a0830187611f75565b81810360c08301526121c38186611f1a565b90506121d260e0830185611f75565b8181036101008301526121e58184611f1a565b90509a9950505050505050505050565b6000806040838503121561220c5761220b611e56565b5b600061221a85828601611e81565b925050602083013567ffffffffffffffff81111561223b5761223a611e5b565b5b612247858286016120a6565b9150509250929050565b600060a0820190506122666000830188611f75565b81810360208301526122788187611f1a565b9050818103604083015261228c8186611f1a565b905081810360608301526122a08185611f1a565b90506122af6080830184611f75565b9695505050505050565b600060808201905081810360008301526122d38187611f1a565b905081810360208301526122e78186611f1a565b905081810360408301526122fb8185611f1a565b905061230a6060830184611f75565b95945050505050565b60008060006060848603121561232c5761232b611e56565b5b600061233a86828701611e81565b935050602061234b86828701611e81565b925050604084013567ffffffffffffffff81111561236c5761236b611e5b565b5b612378868287016120a6565b9150509250925092565b60008115159050919050565b61239781612382565b82525050565b60006020820190506123b2600083018461238e565b92915050565b600073ffffffffffffffffffffffffffffffffffffffff82169050919050565b60006123e3826123b8565b9050919050565b6123f3816123d8565b81146123fe57600080fd5b50565b600081359050612410816123ea565b92915050565b60006020828403121561242c5761242b611e56565b5b600061243a84828501612401565b91505092915050565b6000604082019050612458600083018561238e565b818103602083015261246a8184611f1a565b90509392505050565b60008060006060848603121561248c5761248b611e56565b5b600084013567ffffffffffffffff8111156124aa576124a9611e5b565b5b6124b6868287016120a6565b935050602084013567ffffffffffffffff8111156124d7576124d6611e5b565b5b6124e3868287016120a6565b925050604084013567ffffffffffffffff81111561250457612503611e5b565b5b612510868287016120a6565b9150509250925092565b612523816123d8565b82525050565b600060208201905061253e600083018461251a565b92915050565b7f4e487b7100000000000000000000000000000000000000000000000000000000600052602260045260246000fd5b6000600282049050600182168061258b57607f821691505b60208210810361259e5761259d612544565b5b50919050565b7f4e487b7100000000000000000000000000000000000000000000000000000000600052601160045260246000fd5b60006125de82611e60565b91507fffffffffffffffffffffffffffffffffffffffffffffffffffffffffffffffff82036126105761260f6125a4565b5b600182019050919050565b60008190508160005260206000209050919050565b60006020601f8301049050919050565b600082821b905092915050565b60006008830261267d7fffffffffffffffffffffffffffffffffffffffffffffffffffffffffffffffff82612640565b6126878683612640565b95508019841693508086168417925050509392505050565b6000819050919050565b60006126c46126bf6126ba84611e60565b61269f565b611e60565b9050919050565b6000819050919050565b6126de836126a9565b6126f26126ea826126cb565b84845461264d565b825550505050565b600090565b6127076126fa565b6127128184846126d5565b505050565b5b818110156127365761272b6000826126ff565b600181019050612718565b5050565b601f82111561277b5761274c8161261b565b61275584612630565b81016020851015612764578190505b61277861277085612630565b830182612717565b50505b505050565b600082821c905092915050565b600061279e60001984600802612780565b1980831691505092915050565b60006127b7838361278d565b9150826002028217905092915050565b6127d082611ec3565b67ffffffffffffffff8111156127e9576127e8611fa9565b5b6127f38254612573565b6127fe82828561273a565b600060209050601f831160018114612831576000841561281f578287015190505b61282985826127ab565b865550612891565b601f19841661283f8661261b565b60005b8281101561286757848901518255600182019150602085019450602081019050612842565b868310156128845784890151612880601f89168261278d565b8355505b6001600288020188555050505b505050505050565b6128a281611e60565b82525050565b600082825260208201905092915050565b60006128c482611ec3565b6128ce81856128a8565b93506128de818560208601611edf565b6128e781611f09565b840191505092915050565b60006101208301600083015161290b6000860182612899565b50602083015161291e6020860182612899565b506040830151848203604086015261293682826128b9565b9150506060830151848203606086015261295082826128b9565b91505060808301516129656080860182612899565b5060a083015161297860a0860182612899565b5060c083015184820360c086015261299082826128b9565b91505060e08301516129a560e0860182612899565b506101008301518482036101008601526129bf82826128b9565b9150508091505092915050565b600060208201905081810360008301526129e681846128f2565b905092915050565b7f4e487b7100000000000000000000000000000000000000000000000000000000600052603260045260246000fd5b600081905092915050565b60008154612a3581612573565b612a3f8186612a1d565b94506001821660008114612a5a5760018114612a6f57612aa2565b60ff1983168652811515820286019350612aa2565b612a788561261b565b60005b83811015612a9a57815481890152600182019150602081019050612a7b565b838801955050505b50505092915050565b6000612ab78284612a28565b915081905092915050565b7f496e76616c696420696e6465782e000000000000000000000000000000000000600082015250565b6000612af8600e83611ece565b9150612b0382612ac2565b602082019050919050565b60006020820190508181036000830152612b2781612aeb565b9050919050565b7f566f74696e67206973206e6f74206163746976652e0000000000000000000000600082015250565b6000612b64601583611ece565b9150612b6f82612b2e565b602082019050919050565b60006020820190508181036000830152612b9381612b57565b9050919050565b7f596f75206861766520616c726561647920766f7465642e000000000000000000600082015250565b6000612bd0601783611ece565b9150612bdb82612b9a565b602082019050919050565b60006020820190508181036000830152612bff81612bc3565b9050919050565b6000612c1182611ec3565b612c1b8185612a1d565b9350612c2b818560208601611edf565b80840191505092915050565b6000612c438284612c06565b915081905092915050565b7f5468697320434e49432068617320616c7265616479206265656e20757365642e600082015250565b6000612c84602083611ece565b9150612c8f82612c4e565b602082019050919050565b60006020820190508181036000830152612cb381612c77565b9050919050565b7f496e76616c69642063616e646964617465204944000000000000000000000000600082015250565b6000612cf0601483611ece565b9150612cfb82612cba565b602082019050919050565b60006020820190508181036000830152612d1f81612ce3565b9050919050565b7f4f6e6c792061646d696e2063616e20706572666f726d2074686973206163746960008201527f6f6e2e0000000000000000000000000000000000000000000000000000000000602082015250565b6000612d82602383611ece565b9150612d8d82612d26565b604082019050919050565b60006020820190508181036000830152612db181612d75565b9050919050565b7f53746172742074696d65206d757374206265206265666f726520656e6420746960008201527f6d652e0000000000000000000000000000000000000000000000000000000000602082015250565b6000612e14602383611ece565b9150612e1f82612db8565b604082019050919050565b60006020820190508181036000830152612e4381612e07565b905091905056fea2646970667358221220e0254879306bfc4a26270c2c8268de3f33d631168778d39dba7cb5524371150a64736f6c63430008140033",
  "linkReferences": {},
  "deployedLinkReferences": {}
}